{
  "contractName": "Votacion",
  "abi": [
    {
      "inputs": [],
      "payable": false,
      "stateMutability": "nonpayable",
      "type": "constructor"
    },
    {
      "constant": true,
      "inputs": [],
      "name": "owner",
      "outputs": [
        {
          "internalType": "address",
          "name": "",
          "type": "address"
        }
      ],
      "payable": false,
      "stateMutability": "view",
      "type": "function"
    },
    {
      "constant": true,
      "inputs": [],
      "name": "verCandidatos",
      "outputs": [
        {
          "internalType": "string[]",
          "name": "",
          "type": "string[]"
        }
      ],
      "payable": false,
      "stateMutability": "view",
      "type": "function"
    },
    {
      "constant": false,
      "inputs": [
        {
          "internalType": "string",
          "name": "_sigla",
          "type": "string"
        }
      ],
      "name": "votar",
      "outputs": [
        {
          "internalType": "bool",
          "name": "",
          "type": "bool"
        }
      ],
      "payable": false,
      "stateMutability": "nonpayable",
      "type": "function"
    },
    {
      "constant": true,
      "inputs": [
        {
          "internalType": "string",
          "name": "_sigla",
          "type": "string"
        }
      ],
      "name": "verVotos",
      "outputs": [
        {
          "internalType": "uint256",
          "name": "",
          "type": "uint256"
        }
      ],
      "payable": false,
      "stateMutability": "view",
      "type": "function"
    },
    {
      "constant": true,
      "inputs": [],
      "name": "verResultados",
      "outputs": [
        {
          "internalType": "string",
          "name": "",
          "type": "string"
        }
      ],
      "payable": false,
      "stateMutability": "view",
      "type": "function"
    },
    {
      "constant": true,
      "inputs": [],
      "name": "Ganador",
      "outputs": [
        {
          "internalType": "string",
          "name": "",
          "type": "string"
        }
      ],
      "payable": false,
      "stateMutability": "view",
      "type": "function"
    }
  ],
  "bytecode": "0x60806040523480156200001157600080fd5b50336000806101000a81548173ffffffffffffffffffffffffffffffffffffffff021916908373ffffffffffffffffffffffffffffffffffffffff160217905550600060405160200162000065906200069f565b6040516020818303038152906040528051906020012090508060016040516200008e9062000688565b90815260200160405180910390208190555060038060018154018082558091505090600182039060005260206000200160006040518060400160405280600281526020017f4243000000000000000000000000000000000000000000000000000000000000815250909190915090805190602001906200011092919062000353565b5050604051602001620001239062000629565b6040516020818303038152906040528051906020012090508060016040516200014c9062000612565b90815260200160405180910390208190555060038060018154018082558091505090600182039060005260206000200160006040518060400160405280600381526020017f524555000000000000000000000000000000000000000000000000000000000081525090919091509080519060200190620001ce92919062000353565b5050604051602001620001e190620006da565b6040516020818303038152906040528051906020012090508060016040516200020a90620006c3565b90815260200160405180910390208190555060038060018154018082558091505090600182039060005260206000200160006040518060400160405280600281526020017f4e55000000000000000000000000000000000000000000000000000000000000815250909190915090805190602001906200028c92919062000353565b50506040516020016200029f9062000664565b604051602081830303815290604052805190602001209050806001604051620002c8906200064d565b90815260200160405180910390208190555060038060018154018082558091505090600182039060005260206000200160006040518060400160405280600381526020017f5450550000000000000000000000000000000000000000000000000000000000815250909190915090805190602001906200034a92919062000353565b50505062000709565b828054600181600116156101000203166002900490600052602060002090601f016020900481019282601f106200039657805160ff1916838001178555620003c7565b82800160010185558215620003c7579182015b82811115620003c6578251825591602001919060010190620003a9565b5b509050620003d69190620003da565b5090565b620003ff91905b80821115620003fb576000816000905550600101620003e1565b5090565b90565b600062000411600383620006fe565b91507f52455500000000000000000000000000000000000000000000000000000000006000830152600382019050919050565b600062000453600e83620006fe565b91507f546f646f7320506f72206c6120550000000000000000000000000000000000006000830152600e82019050919050565b600062000495600383620006fe565b91507f54505500000000000000000000000000000000000000000000000000000000006000830152600382019050919050565b6000620004d7600683620006fe565b91507f426c616e636f00000000000000000000000000000000000000000000000000006000830152600682019050919050565b600062000519600283620006fe565b91507f42430000000000000000000000000000000000000000000000000000000000006000830152600282019050919050565b60006200055b601c83620006fe565b91507f526573697374656e63696120457374756469616e74696c20554d5341000000006000830152601c82019050919050565b60006200059d600783620006fe565b91507f4e756576612055000000000000000000000000000000000000000000000000006000830152600782019050919050565b6000620005df600283620006fe565b91507f4e550000000000000000000000000000000000000000000000000000000000006000830152600282019050919050565b60006200061f8262000402565b9150819050919050565b6000620006368262000402565b915062000643826200054c565b9150819050919050565b60006200065a8262000486565b9150819050919050565b6000620006718262000486565b91506200067e8262000444565b9150819050919050565b600062000695826200050a565b9150819050919050565b6000620006ac826200050a565b9150620006b982620004c8565b9150819050919050565b6000620006d082620005d0565b9150819050919050565b6000620006e782620005d0565b9150620006f4826200058e565b9150819050919050565b600081905092915050565b610f5780620007196000396000f3fe608060405234801561001057600080fd5b50600436106100625760003560e01c806355911cc11461006757806358c6414f1461008557806360df75d4146100a35780638da5cb5b146100d3578063caaa49a6146100f1578063ce3fe6411461010f575b600080fd5b61006f61013f565b60405161007c9190610cef565b60405180910390f35b61008d6103c3565b60405161009a9190610cef565b60405180910390f35b6100bd60048036036100b891908101906108bd565b6104fb565b6040516100ca9190610d31565b60405180910390f35b6100db610523565b6040516100e89190610c97565b60405180910390f35b6100f9610548565b6040516101069190610cb2565b60405180910390f35b610129600480360361012491908101906108bd565b610631565b6040516101369190610cd4565b60405180910390f35b606080600360008154811061015057fe5b906000526020600020018054600181600116156101000203166002900480601f0160208091040260200160405190810160405280929190818152602001828054600181600116156101000203166002900480156101ee5780601f106101c3576101008083540402835291602001916101ee565b820191906000526020600020905b8154815290600101906020018083116101d157829003601f168201915b505050505090506000600190505b6003805490508110156103bb5760026003828154811061021857fe5b9060005260206000200160405161022f9190610c80565b90815260200160405180910390205460028360405161024e9190610c17565b908152602001604051809103902054101561031a576003818154811061027057fe5b906000526020600020018054600181600116156101000203166002900480601f01602080910402602001604051908101604052809291908181526020018280546001816001161561010002031660029004801561030e5780601f106102e35761010080835404028352916020019161030e565b820191906000526020600020905b8154815290600101906020018083116102f157829003601f168201915b505050505091506103ae565b60026003828154811061032957fe5b906000526020600020016040516103409190610c80565b90815260200160405180910390205460028360405161035f9190610c17565b90815260200160405180910390205414156103ad576040518060400160405280601181526020017f45786973746520756e20656d706174652100000000000000000000000000000081525091505b5b80806001019150506101fc565b508091505090565b60608060405180602001604052806000815250905060008090505b6003805490508110156104f35781600382815481106103f957fe5b906000526020600020016104c36104be6003858154811061041657fe5b906000526020600020018054600181600116156101000203166002900480601f0160208091040260200160405190810160405280929190818152602001828054600181600116156101000203166002900480156104b45780601f10610489576101008083540402835291602001916104b4565b820191906000526020600020905b81548152906001019060200180831161049757829003601f168201915b50505050506104fb565b61073c565b6040516020016104d593929190610c2e565b604051602081830303815290604052915080806001019150506103de565b508091505090565b600060028260405161050d9190610c17565b9081526020016040518091039020549050919050565b6000809054906101000a900473ffffffffffffffffffffffffffffffffffffffff1681565b60606003805480602002602001604051908101604052809291908181526020016000905b82821015610628578382906000526020600020018054600181600116156101000203166002900480601f0160208091040260200160405190810160405280929190818152602001828054600181600116156101000203166002900480156106145780601f106105e957610100808354040283529160200191610614565b820191906000526020600020905b8154815290600101906020018083116105f757829003601f168201915b50505050508152602001906001019061056c565b50505050905090565b600080336040516020016106459190610bfc565b60405160208183030381529060405280519060200120905060008090505b6004805490508110156106d757816004828154811061067e57fe5b906000526020600020015414156106ca576040517f08c379a00000000000000000000000000000000000000000000000000000000081526004016106c190610d11565b60405180910390fd5b8080600101915050610663565b5060048190806001815401808255809150509060018203906000526020600020016000909192909190915055506002836040516107149190610c17565b9081526020016040518091039020600081548092919060010191905055506001915050919050565b60606000821415610784576040518060400160405280600181526020017f30000000000000000000000000000000000000000000000000000000000000008152509050610864565b600082905060005b600082146107ae578080600101915050600a82816107a657fe5b04915061078c565b6060816040519080825280601f01601f1916602001820160405280156107e35781602001600182028038833980820191505090505b50905060006001830390505b6000861461085c57600a868161080157fe5b0660300160f81b8282806001900393508151811061081b57fe5b60200101907effffffffffffffffffffffffffffffffffffffffffffffffffffffffffffff1916908160001a905350600a868161085457fe5b0495506107ef565b819450505050505b919050565b600082601f83011261087a57600080fd5b813561088d61088882610d79565b610d4c565b915080825260208301602083018583830111156108a957600080fd5b6108b4838284610e90565b50505092915050565b6000602082840312156108cf57600080fd5b600082013567ffffffffffffffff8111156108e957600080fd5b6108f584828501610869565b91505092915050565b600061090a8383610a26565b905092915050565b61092361091e82610e48565b610ed2565b82525050565b61093281610e36565b82525050565b600061094382610dca565b61094d8185610df8565b93508360208202850161095f85610da5565b8060005b8581101561099b578484038952815161097c85826108fe565b945061098783610deb565b925060208a01995050600181019050610963565b50829750879550505050505092915050565b6109b681610e5a565b82525050565b60006109c782610de0565b6109d18185610e1a565b93506109e1818560208601610e9f565b6109ea81610ef6565b840191505092915050565b6000610a0082610de0565b610a0a8185610e2b565b9350610a1a818560208601610e9f565b80840191505092915050565b6000610a3182610dd5565b610a3b8185610e09565b9350610a4b818560208601610e9f565b610a5481610ef6565b840191505092915050565b600081546001811660008114610a7c5760018114610aa157610ae5565b607f6002830416610a8d8187610e2b565b955060ff1983168652808601935050610ae5565b60028204610aaf8187610e2b565b9550610aba85610db5565b60005b82811015610adc57815481890152600182019150602081019050610abd565b82880195505050505b505092915050565b6000610afa600183610e2b565b91507f28000000000000000000000000000000000000000000000000000000000000006000830152600182019050919050565b6000610b3a600183610e2b565b91507f29000000000000000000000000000000000000000000000000000000000000006000830152600182019050919050565b6000610b7a600283610e2b565b91507f3a200000000000000000000000000000000000000000000000000000000000006000830152600282019050919050565b6000610bba600a83610e1a565b91507f596120766f7461737465000000000000000000000000000000000000000000006000830152602082019050919050565b610bf681610e86565b82525050565b6000610c088284610912565b60148201915081905092915050565b6000610c2382846109f5565b915081905092915050565b6000610c3a82866109f5565b9150610c4582610aed565b9150610c518285610a5f565b9150610c5c82610b6d565b9150610c6882846109f5565b9150610c7382610b2d565b9150819050949350505050565b6000610c8c8284610a5f565b915081905092915050565b6000602082019050610cac6000830184610929565b92915050565b60006020820190508181036000830152610ccc8184610938565b905092915050565b6000602082019050610ce960008301846109ad565b92915050565b60006020820190508181036000830152610d0981846109bc565b905092915050565b60006020820190508181036000830152610d2a81610bad565b9050919050565b6000602082019050610d466000830184610bed565b92915050565b6000604051905081810181811067ffffffffffffffff82111715610d6f57600080fd5b8060405250919050565b600067ffffffffffffffff821115610d9057600080fd5b601f19601f8301169050602081019050919050565b6000819050602082019050919050565b60008190508160005260206000209050919050565b600081519050919050565b600081519050919050565b600081519050919050565b6000602082019050919050565b600082825260208201905092915050565b600082825260208201905092915050565b600082825260208201905092915050565b600081905092915050565b6000610e4182610e66565b9050919050565b6000610e5382610e66565b9050919050565b60008115159050919050565b600073ffffffffffffffffffffffffffffffffffffffff82169050919050565b6000819050919050565b82818337600083830152505050565b60005b83811015610ebd578082015181840152602081019050610ea2565b83811115610ecc576000848401525b50505050565b6000610edd82610ee4565b9050919050565b6000610eef82610f07565b9050919050565b6000601f19601f8301169050919050565b60008160601b905091905056fea365627a7a72315820f5c6e6e78a6d94cc6f78cf4a9279b2caaddb720c92f171afed2e92c58a7b843b6c6578706572696d656e74616cf564736f6c63430005100040",
  "source": "// SPDX-License-Identifier: MIT\npragma solidity >=0.4.4;\npragma experimental ABIEncoderV2;\n\ncontract Votacion{\n\n    //Direccion del propietario del contrato\n    address public owner;\n\n    //Relacion entre el nombre CANDIDATOS y Hash datos personales\n    mapping (string => bytes32) id_candidatos;\n\n    //Para saber como va la votación CANDIDATO => numero de votos\n    mapping (string => uint) cand_votos;\n\n    //Lista de los nombre de los CANDIDATOS\n    string [] candidatos;\n\n\n    //Lista de VOTANTES (hash de las direcciones)\n    bytes32 [] votantes;\n    \n    //Constructor \n    constructor() public{\n        owner=msg.sender; //El que desplegue el contrato\n\n        //Iniciamos a los candidatos\n        bytes32 hash_cand = keccak256(abi.encodePacked(\"BC\", \"Blanco\"));\n        id_candidatos[\"BC\"]=hash_cand;\n        candidatos.push(\"BC\");\n\n        hash_cand = keccak256(abi.encodePacked(\"REU\", \"Resistencia Estudiantil UMSA\"));\n        id_candidatos[\"REU\"]=hash_cand;\n        candidatos.push(\"REU\");\n\n        hash_cand = keccak256(abi.encodePacked(\"NU\", \"Nueva U\"));\n        id_candidatos[\"NU\"]=hash_cand;\n        candidatos.push(\"NU\");\n\n        hash_cand = keccak256(abi.encodePacked(\"TPU\", \"Todos Por la U\"));\n        id_candidatos[\"TPU\"]=hash_cand;\n        candidatos.push(\"TPU\");\n    }\n\n    //Funcion que hace que cualquier persona pueda presentarse a las elecciones (CANDIDATOS)\n    /*function represetar(string memory _nom, uint _edad, string memory _id) public{\n        //calcular el hash de los datos del candidato\n        bytes32 hash_cand = keccak256(abi.encodePacked(_nom,_edad,_id));\n\n        //Almacenamos el hash de los datos del candidato\n        id_candidatos[_nom]=hash_cand;\n\n        //Añadimos al candidato al array\n        candidatos.push(_nom);\n    }*/\n\n    //Función que nos indica que personas se han presentado como candidatos\n    function verCandidatos() public view returns(string [] memory){\n        return candidatos;\n    }\n\n    //VOTAR A UN CANDIDATO\n    function votar(string memory _sigla) public returns(bool){\n        //calculamos el hash de la direccion de la persona que ejecuta esta funcion\n        bytes32 dir = keccak256(abi.encodePacked(msg.sender));\n        for(uint i = 0; i < votantes.length; i++){\n            //Verificamos que el votante no esté en la lista\n            require(votantes[i]!=dir,\"Ya votaste\");\n        }\n        //añadimos la direccion del nuevo votante\n        votantes.push(dir);\n        //Sumar el voto\n        cand_votos[_sigla]++;\n        return true;\n    }\n\n    //Ver los votos de un candidato\n    function verVotos(string memory _sigla) public view returns(uint){\n        return cand_votos[_sigla];\n    }\n\n    //Ver los votos de cada uno de los candidatos\n    function verResultados() public view returns(string memory){//Acceder a los datos\n        //Almacenamos en un string los resultados\n        string memory resultado=\"\";\n        for(uint i = 0; i < candidatos.length; i++){\n            //Actualizamos el string con cada candidato (Primero a bytes y luego a string\n            resultado = string(abi.encodePacked(resultado, \"(\",candidatos[i],\": \",uint2str(verVotos(candidatos[i])),\")\")); //bytes->string\n        }\n        return resultado;\n    }   \n\n    \n    function Ganador() public view returns(string memory){\n        //La variable contendra el nombre del ganador\n        string memory ganador = candidatos[0];\n        //Recorremos el array de candidatos para determinar el numero mayor de votos\n        for(uint i = 1; i < candidatos.length; i++){\n            if(cand_votos[ganador] < cand_votos[candidatos[i]]){\n                ganador = candidatos[i];\n            }else{\n                if(cand_votos[ganador] == cand_votos[candidatos[i]]){\n                    ganador=\"Existe un empate!\";\n                }\n            }\n        }\n        return ganador;\n    }\n\n    //Funcion auxiliar para convertir un UINT a STRING\n    function uint2str(uint _i) internal pure returns(string memory){\n        if(_i == 0){\n            return \"0\";\n        }\n        uint j = _i;\n        uint len;\n        while(j != 0){\n            len++;\n            j/=10;\n        }\n        bytes memory bstr = new bytes(len);\n        uint k = len - 1;\n        while(_i != 0){\n            //era byte\n            bstr[k--] = bytes1(uint8(48 + _i % 10));\n            _i /= 10;\n        }\n        return string(bstr);\n    } \n}",
  "sourcePath": "/home/rob/Plantillas/Dapps/dapp-oficial/contracts/Votacion.sol",
  "compiler": {
    "name": "solc",
    "version": "0.5.16+commit.9c3226ce.Emscripten.clang"
  },
  "schemaVersion": "3.4.10",
  "updatedAt": "2023-02-23T19:15:35.910Z",
  "networkType": "ethereum",
  "devdoc": {
    "methods": {}
  },
  "userdoc": {
    "methods": {}
  }
}